:100000000C945A000C9477000C9477000C947700B1
:100010000C9477000C9477000C9477000C94770084
:100020000C9477000C9477000C9477000C94770074
:100030000C9477000C9477000C9477000C94770064
:100040000C9477000C9477000C9477000C94770054
:100050000C9477000C9477000C9477000C94770044
:100060000C9477000C9477000C9477000C94770034
:100070000C9477000C9477000C9477000C94770024
:100080000C9477000C9477000C9477000C94770014
:100090000C9477000C9477000C9477000C94770004
:1000A0000C9477000C9477000C9477000C947700F4
:1000B0000C94770011241FBECFEFD8E0DEBFCDBF78
:1000C00011E0A0E0B1E0E4E9FAE002C005900D9291
:1000D000A23CB107D9F721E0A2ECB1E001C01D922A
:1000E000A33EB207E1F70E94ED020C9448050C9480
:1000F000000080E090E00E942E058F3F09F480E030
:100100000895DF92EF92FF920F931F93CF93DF93A7
:10011000D82EE62EF42ED22F0E947900C82F8032DE
:1001200000F5082F10E0000F111F000F111F6D2D9B
:10013000C80101960E9436056E2DC80102960E94E4
:1001400036056F2DC80103960E9436056D2FC80134
:1001500004960E94360561E06C0F80E090E00E94FA
:100160003605DF91CF911F910F91FF90EF90DF90B7
:100170000895AF92BF92CF92DF92EF92FF920F93CA
:100180001F93CF93DF935B016A017901C82FD0E001
:10019000CC0FDD1FCC0FDD1FCE0101960E942E0576
:1001A000F5018083CE0102960E942E05F601808320
:1001B000CE0103960E942E05F7018083CE0104969E
:1001C0000E942E05F8018083DF91CF911F910F913E
:1001D000FF90EF90DF90CF90BF90AF900895853B58
:1001E00008F084EB9FEF899F90011124A3E8BDE202
:1001F0000E94AC0496958795929582958F70892779
:100200009F70892708958AB1806C8AB98BB18F73EA
:100210008BB908959BB19F739BB9813019F49BB141
:1002200090649BB9823019F49BB190689BB983307C
:1002300019F48BB1806C8BB90895EEE7F0E0808102
:100240008F608083ACE7B0E080E68C93EAE7F0E073
:1002500097E890838C9380818064808380917A007A
:1002600086FDFCCF08958770806680937C00EAE766
:10027000F0E080818064808380917A0086FDFCCFED
:10028000EAE7F0E080818064808380917A0086FDD7
:10029000FCCF80917900089594EB899F90011124FF
:1002A000A1E8B0E80E94AC04880F892F881F990B41
:1002B000919508950F931F93CF93DF93D82FC0E0AC
:1002C00000E010E006C08D2F0E943301080F111DC1
:1002D000CF5FC830C0F3C8019695879596958795EE
:1002E00096958795DF91CF911F910F91089568178B
:1002F00018F4982F961B02C0962F981B923008F482
:10030000862F0895853B08F084EB809307010E94B7
:10031000EF000E94BB030895853B08F084EB8093B7
:1003200006010E94EF000E94DD030895853B08F05E
:1003300084EB809305010E94EF000E94FD03089565
:10034000853B08F084EB809304010E94EF000E943B
:100350001A040895EF92FF920F931F93CF93DF93A8
:10036000CDB7DEB7AC970FB6F894DEBF0FBECDBFEA
:100370000E947900E82E811105C081E191E00E9480
:100380003E047DC08BE291E00E943E044AE0BE0143
:100390006F5F7F4F8E2D90E00E94F104CE01019699
:1003A0000E943E048AE391E00E943E04F12C60C06A
:1003B00060E2CE0109960E944B04882381F0898572
:1003C0008D3469F4CE010A960E94BB049FEF980F0A
:1003D000933028F4809308010E940A0150C08E01D6
:1003E000075D1F4F9E01265D3F4FAE01455D5F4F8C
:1003F000BE01645D7F4F8F2D0E94B9008CA50E94C5
:1004000082018BA50E948C018AA50E94960189A574
:100410000E94A00188E491E00E943E048F2D90E0AC
:100420004AE0BE016F5F7F4F01960E94F104CE014A
:1004300001960E943E0483E691E00E943E048BB147
:100440008F778BB92FEF82E597E021508040904065
:10045000E1F700C000008BB180688BB92FEF83ED0E
:1004600090E3215080409040E1F700C00000F394F9
:10047000FE1408F49DCF8DE491E00E943E04AC96FA
:100480000FB6F894DEBF0FBECDBFDF91CF911F91A5
:100490000F91FF90EF900895FF920F931F93CF93CA
:1004A000DF93CDB7DEB728970FB6F894DEBF0FBE47
:1004B000CDBFFC01F080FF2009F483C08C0166E60B
:1004C00071E00E94D904892B09F47BC0FDE4FF127E
:1004D0002EC0C80101960E94BB049FEF980F933075
:1004E00008F06FC0809308010E940A0188E0E9E0EB
:1004F000F1E0DE01119601900D928A95E1F788E610
:1005000091E00E943E04E0910801F0E0EE0FFF1F31
:1005100081E090E08C0F9D1FE80FF91F8081918191
:100520000E943E0483E691E00E943E044AC097E4A4
:10053000F91229C0F80101900020E9F73197E01B7A
:10054000F10B319701F52091040140910501609173
:100550000601809107010E9481008FE691E00E94D0
:100560003E040E9479004AE0BE016F5F7F4F90E039
:100570000E94F104CE0101960E943E0483E691E0C0
:100580000E943E041EC0C80101960E94BB04853B28
:1005900008F084EBE2E4FE1203C00E94820111C065
:1005A000F8E4FF1203C00E948C010BC093E4F9121F
:1005B00003C00E94960105C0E2E5FE1202C00E943F
:1005C000A00128960FB6F894DEBF0FBECDBFDF9115
:1005D000CF911F910F91FF900895CF93DF93CDB7E7
:1005E000DEB7A0970FB6F894DEBF0FBECDBF0E9456
:1005F00003010E941D010E942B040E94A5030E947A
:10060000CE030E94F0030E940E048AE50E9482013C
:100610008AE50E948C018AE50E9496018AE50E9483
:10062000A00181E00E940A0180E991E00E943E045D
:1006300060E2CE0101960E944B04882321F0CE0196
:1006400001960E944C0280910801813009F05DC042
:1006500080E00E945A010E944C01E82E81E00E9435
:100660005A010E944C01F82E82E00E945A010E9419
:100670004C01082F83E00E945A010E944C01182F60
:10068000D09003016D2D8E2D0E947701E82E609190
:1006900002018F2D0E947701F82E60910101802FB9
:1006A0000E947701082F60910001812F0E9477013D
:1006B000182FDE1429F08E2D0E948201E092030192
:1006C00080910201F81629F08F2D0E948C01F09282
:1006D000020180910101081729F0802F0E949601E4
:1006E0000093010180910001181729F0812F0E94C9
:1006F000A001109300012FEF89EF90E0215080407E
:100700009040E1F700C0000093CF823089F40E944E
:10071000AA0180910801823009F08ACF81E080939C
:1007200008010E940A018CEA91E00E943E0480CFF9
:10073000833009F07DCF2FEF89EF90E0215080408A
:100740009040E1F700C0000073CF84B1826084B9AB
:1007500082E8809380008AE1809381008FE39CE9A6
:10076000909387008093860084E59BE090938900B6
:10077000809388000895282F30E0A8EDBEE00E9405
:10078000AC042FEF30E040E050E00E948A04285192
:100790003C4F3093890020938800089584B1846091
:1007A00084B9E0E8F0E080818062808384E59BE0AA
:1007B00090938B0080938A000895282F30E0A8ED55
:1007C000BEE00E94AC042FEF30E040E050E00E9419
:1007D0008A0428513C4F30938B0020938A0008955F
:1007E00084B1886084B981E88093B00087E0809309
:1007F000B1008CE08093B30008959FE0899F900141
:100800001124A1E8B0E80E94AC04880F892F881F4A
:10081000990B91958C5F8093B30008958AB188609D
:100820008AB9E0EBF0E08081806280838CE0809385
:10083000B40008959FE0899F90011124A1E8B0E8D9
:100840000E94AC04880F892F881F990B91958C5FAB
:100850008093B40008951092C50087E68093C40089
:1008600088E18093C10086E08093C2000895909152
:10087000C00095FFFCCF8093C6000895CF93DF930F
:10088000EC0103C021960E94370488818111FACFC0
:10089000DF91CF9108950F931F93CF93DF93EC01D6
:1008A0002FC09091C6009A3011F09D30D1F4E091A4
:1008B000E201EE2329F18E01F0E0EE53FE4F1082AB
:1008C000262F30E0E9012197AE0162EC71E0C8010A
:1008D0000E94E204C00FD11F18821092E20181E051
:1008E00014C0E091E201EF3148F421E02E0F209393
:1008F000E201F0E0EE53FE4F908302C01092E2015D
:100900009091C00099236CF280E0DF91CF911F910C
:100910000F910895A1E21A2EAA1BBB1BFD010DC069
:10092000AA1FBB1FEE1FFF1FA217B307E407F5079F
:1009300020F0A21BB30BE40BF50B661F771F881F7B
:10094000991F1A9469F760957095809590959B0111
:10095000AC01BD01CF010895A29FB001B39FC001BA
:10096000A39F700D811D1124911DB29F700D811DDB
:100970001124911D0895FC0188279927E89421915D
:100980002032E9F3293010F02E30C8F32B3241F039
:100990002D3239F4689404C00E94FC04820F911D2A
:1009A000219120532A30C0F31EF4909581959F4FDA
:1009B0000895FB01DC018D91019080190110D9F39C
:1009C000990B0895FB01DC014150504048F0019023
:1009D0000D920020C9F701C01D9241505040E0F730
:1009E0000895BB274A3031F4992322F4BDE2909553
:1009F00081959F4F0C9405057AE0979F902D879FD6
:100A0000802D910D11240895BB27FB015527AA279E
:100A1000880F991FAA1FA41710F0A41B839550518B
:100A2000B9F7A05DAA3308F0A95DA193009779F703
:100A3000B111B1931192CB010C941E05DC01FC01A4
:100A4000672F71917723E1F7329704C07C916D9302
:100A500070836291AE17BF07C8F30895F999FECF6E
:100A600092BD81BDF89A992780B50895262FF999EE
:100A7000FECF92BD81BDF89A019700B4021639F0FD
:100A80001FBA20BD0FB6F894FA9AF99A0FBE0895CE
:040A9000F894FFCF08
:100A94005A5A5A5A5A5A5A5A0165017D0184018B8D
:100AA4000153696E20706F736963696F6E6573209B
:100AB40067726162616461730D0A00526570726FDE
:100AC40064756369656E646F200020706F73696379
:100AD400696F6E65730D0A00506F73200052657064
:100AE400726F64756363696F6E207465726D696E8D
:100AF4006164610D0A0030004D6F646F3A20004755
:100B04007561726461646120706F7320004D616E61
:100B140075616C00454550524F4D0055415254008B
:100B24004272617A6F206C6973746F202D204D6F4F
:100B3400646F204D616E75616C0D0A00566F6C76A2
:100B440069656E646F2061204D616E75616C0D0A7C
:020B540000009F
:00000001FF
